S01600004B45595041445F50524F4A4543542E73726563DA
S11300000C942A000C9447000C9447000C9447006D
S11300100C9447000C9447000C9447000C94470040
S11300200C9447000C9447000C9447000C94470030
S11300300C9447000C9447000C9447000C94470020
S11300400C9447000C9447000C9447000C94470010
S11300500C94470011241FBECFE5D8E0DEBFCDBF0E
S113006010E0A0E6B0E0EAE6F1E002C005900D92EF
S1130070A037B107D9F720E0A0E7B0E001C01D9296
S1130080A537B207E1F70E9494000C94B3000C94D6
S113009000001092730061E070E0E1E088B3806FCB
S11300A088BB98B3809173008C5F9B0102C0220FC0
S11300B0331F8A95E2F7822F8095892388BB10929B
S11300C0710080B3282F207184FD28C00AC080B33A
S11300D090E0042E02C0959587950A94E2F780FD7E
S11300E00EC0E0917300EE0FEE0F2E0F20937200FE
S11300F0E22FF0E0E05AFF4F808190E008952F5FF7
S1130100209371004F5F5F4F243009F78091730093
S11301108F5F80937300843008F20895E093710038
S113012045E050E021E0D3CF87B38F7087BB81B324
S11301308F7081BBB89A82B3806F82BB88B3806FA3
S113014088BB0E944900809374008733D1F7C09A1A
S11301502AEA36EE86E991E0215030408040904012
S10D0160D9F70000EECFF894FFCFAA
S113016A3738392F3435362A3132332D43303D2B43
S9030000FC
