S01200004B45595041442B4C43442E7372656356
S11300000C942A000C9447000C9447000C9447006D
S11300100C9447000C9447000C9447000C94470040
S11300200C9447000C9447000C9447000C94470030
S11300300C9447000C9447000C9447000C94470020
S11300400C9447000C9447000C9447000C94470010
S11300500C94470011241FBECFE5D8E0DEBFCDBF0E
S113006010E0A0E6B0E0E2E4F2E002C005900D92F8
S1130070A037B107D9F720E0A0E7B0E001C01D9296
S1130080A537B207E1F70E9404010C941F010C94F8
S113009000001092730061E070E0E1E082B38F60D1
S11300A082BB92B39B010090730002C0220F331FE6
S11300B00A94E2F7822F8095892382BB1092710003
S11300C080B3282F207184FD28C00AC080B390E03B
S11300D0042E02C0959587950A94E2F780FD0EC020
S11300E0E0917300EE0FEE0F2E0F20937200E22FBB
S11300F0F0E0E05AFF4F808190E008952F5F209355
S113010071004F5F5F4F243009F7809173008F5F58
S113011080937300843010F20895E093710045E0F9
S113012050E021E0D3CF9BB39F70282F207F922BE8
S11301309BBBC198C39A35E33A95F1F70000C39885
S1130140EFE3FFE13197F1F700C000002BB32F700C
S1130150F0E18F9FC0011124822B8BBBC39A35E041
S11301603A95F1F70000C3988FE39FE10197F1F707
S113017000C0000008958FEF8ABB8FE087BBC29850
S11301802FEF89EF90E0215080409040E1F700C0CC
S1130190000083E30E94930082E30E94930088E2BC
S11301A00E9493008CE00E94930086E00E949300DA
S11301B081E00E94930008959BB39F70282F207FB5
S11301C0922B9BBBC19AC39A35E33A95F1F7000091
S11301D0C398EFE1F3E03197F1F700C000002BB3CF
S11301E02F70F0E18F9FC0011124822B8BBBC39A27
S11301F035E33A95F1F70000C3988FE59DE6019742
S1130200F1F700C00000089581B38F6081BB81B312
S11302108F7081BBB89A82B3806F82BB82B38F60C8
S113022082BB0E94BB000E9449008093740080E856
S11302300E949300809174000E94DC00F4CFF89433
S1050240FFCFEA
S11302423738392F3435362A3132332D43303D2B6A
S9030000FC
