:100000000C942A000C9447000C9447000C94470071
:100010000C9447000C9447000C9447000C94470044
:100020000C9447000C9447000C9447000C94470034
:100030000C9447000C9447000C9447000C94470024
:100040000C9447000C9447000C9447000C94470014
:100050000C94470011241FBECFE5D8E0DEBFCDBF12
:1000600010E0A0E6B0E0ECE3F3E002C005900D92F2
:10007000AA3FB107D9F720E0AAEFB0E001C01D9276
:10008000AF3FB207E1F70E9416010C949C010C945B
:1000900000001092FD0061E070E0E1E082B38F604B
:1000A00082BB92B39B010090FD0002C0220F331F60
:1000B0000A94E2F7822F8095892382BB1092FB007D
:1000C00080B3282F207184FD2BC00AC080B390E03C
:1000D000042E02C0959587950A94E2F780FD0EC024
:1000E000E091FD00EE0FEE0F2E0F2093FC00E22FAB
:1000F000F0E0E05AFF4F808190E008952F5F209359
:10010000FB004F5F5F4F243009F78091FD008F5F48
:100110008093FD00843010F28091700090E008958B
:10012000E093FB0045E050E021E0D0CF9BB39F700F
:10013000282F207F922B9BBBC198C39A35E33A9519
:10014000F1F70000C398EFE3FFE13197F1F700C04A
:1001500000002BB32F70F0E18F9FC0011124822B80
:100160008BBBC39A35E03A95F1F70000C3988FE353
:100170009FE10197F1F700C0000008958FEF8ABB5F
:100180008FE087BBC2982FEF89EF90E0215080402D
:100190009040E1F700C0000083E30E94960082E3F4
:1001A0000E94960088E20E9496008CE00E949600D1
:1001B00086E00E94960081E00E94960008959BB31D
:1001C0009F70282F207F922B9BBBC19AC39A35E347
:1001D0003A95F1F70000C398EFE1F3E03197F1F7BA
:1001E00000C000002BB32F70F0E18F9FC0011124DD
:1001F000822B8BBBC39A35E33A95F1F70000C39885
:100200008FE59DE60197F1F700C000000895CF93B8
:10021000DF93EC018881882331F021960E94DF0072
:1002200089918111FBCFDF91CF91089581B38F60C8
:1002300081BB81B38F7081BB84B38F6784BB82B372
:100240008FEF82BB0E94BE000E9449008093FE0097
:100250008833A1F485B38D6285BB85B38D7E85BB64
:1002600080E80E94960081E790E00E94070180EC00
:100270000E9496008BEA90E00E9407018091FE00A8
:100280008233A1F485B38E6185BB85B38E7D85BB3A
:1002900080E80E9496008CE890E00E94070180ECC4
:1002A0000E9496008BEA90E00E9407018091FE0078
:1002B0008433A1F485B3856085BB85B3857085BB28
:1002C00080E80E94960086EA90E00E94070180EC98
:1002D0000E9496008BEA90E00E9407018091FE0048
:1002E0008633A1F485B3886285BB85B3887285BBEC
:1002F00080E80E94960082EC90E00E94070180EC6A
:100300000E9496008BEA90E00E9407018091FE0017
:10031000813609F099CF85B315BA80E80E9496001E
:1003200089ED90E00E94070180EC0E9496008AEE21
:0C03300090E00E94070188CFF894FFCFF6
:10033C003738392F3435362A3132332D43303D2B73
:10034C0061466F727761726420202020202020206B
:10035C002020202020202020202020004261636BC0
:10036C007761726420202020202020202020202053
:10037C002020202020004C65667420202020202086
:10038C002020202020202020202020202020202061
:10039C002000526967687420202020202020202013
:1003AC00202020202020202000382D3E46726F6E09
:1003BC007420322D3E4261636B00342D7269676884
:0A03CC007420362D6C656674000085
:00000001FF
